:020000040800F2
:10000000F0080020A10100085F2E0008E12500088B
:100010005D2E0008810B0008F53300080000000089
:10002000000000000000000000000000E32F0008B6
:100030006F0C000800000000612E0008E52F00088A
:10004000BB010008BB010008BB010008BB010008A0
:10005000BB010008BB010008BB010008BB01000890
:10006000BB010008BB010008BB010008BB01000880
:10007000BB010008BB010008BB010008BB01000870
:10008000BB010008BB010008BB010008BB01000860
:10009000BB010008BB010008BB010008BB01000850
:1000A000BB010008BB010008BB010008BB01000840
:1000B000BB010008BB010008BB010008BB01000830
:1000C000BB010008BB010008BB010008BB01000820
:1000D000BB010008BB010008BB010008E9330008B0
:1000E000BB010008BB010008BB010008BB01000800
:1000F000BB010008BB010008BB010008BB010008F0
:10010000BB010008BB010008BB010008BB010008DF
:10011000BB010008BB010008BB010008BB010008CF
:10012000BB010008BB010008BB010008BB010008BF
:10013000BB010008BB010008BB010008BB010008AF
:10014000BB010008BB010008BB010008BB0100089F
:10015000BB010008BB010008BB010008BB0100088F
:10016000BB010008BB010008BB010008BB0100087F
:10017000BB010008BB010008BB0100080000000033
:10018000BB010008BB010008DFF810D000F0B2FB93
:1001900000480047ED5E0008AFF30080F008002043
:1001A0000648804706480047FEE7FEE7FEE7FEE711
:1001B000FEE7FEE7FEE7FEE7FEE7FEE76D3000083C
:1001C000890100082DE9F05F0546002092469B4614
:1001D00088460646814640241BE02846414647465D
:1001E000224600F088FA53465A46C01A914110D36D
:1001F00011461846224600F06FFA2D1A67EB0108E7
:100200004F4622460120002100F066FA17EB000954
:100210004E41201EA4F10104DFDC484631462A4647
:100220004346BDE8F09F2DE9F0410024061B25461A
:1002300071F1000605DA01240027D0EB070067EB17
:100240000101161E73F1000605DA0027D2EB070242
:10025000012567EB0303FFF7B5FF86460E461746F9
:100260009C46AC4204D00025D0EB050E65EB0106A0
:1002700024B10020D2EB000760EB030C704631463E
:100280003A466346BDE8F08140EA01039B0703D08C
:1002900009E008C9121F08C0042AFAD203E011F8C5
:1002A000013B00F8013B521EF9D27047D2B201E087
:1002B00000F8012B491EFBD270470022F6E710B56B
:1002C00013460A4604461946FFF7F0FF204610BDC4
:1002D00030B505462A460B4612F8010B13F8014BC0
:1002E00008B1A042F8D01CB1002802D06D1CF1E783
:1002F000284630BD421C10F8011B0029FBD1801A92
:10030000704730B504460020034600E05B1C934272
:1003100003D2E05CCD5C401BF8D030BD2DE9FE4F30
:10032000804681EA0300C00F0C46009021F0004196
:1003300023F00045B8EB0200A94105D24046214612
:1003400090461C460B46024623F00040104347D01F
:10035000270DC7F30A00C3F30A510290401A019017
:1003600040286BDAC3F3130040F4801B00989246D8
:1003700020B10023D2EB030A63EB0B0B0198594623
:10038000C0F14002504600F0A7F906460D4650461F
:100390005946019A00F0BFF910EB080061410024B2
:1003A00087EA115284EAE7731A4340D0009A62B395
:1003B000019A012A4FEA075215DC001B61EB02018A
:1003C0004FF0004202EA0752CDE90042001C41F51D
:1003D000801132462B4600F0F6F903B0BDE8F08FED
:1003E00040462146F9E7001B61EB0201001C41F584
:1003F000801300185B412018A2F5001747EB03019A
:1004000040EAD570B6196D4111E06D084FEA360625
:1004100045EAC0754FEA0752001B61EB0201001C60
:1004200041F5801149084FEA300000195141324628
:100430002B4603B0BDE8F04F00F0B6B9009801229A
:1004400040000023D0EB020263EBE07300982146EA
:100450004FEAE074B8EB000061EB0401E9E783F0D8
:1004600000435BE781F0004158E72DE9FE4F81EA48
:10047000030404F0004421F0004100944FF0000B0D
:1004800023F0004350EA01045ED052EA03045BD03B
:10049000C3F30A54C1F30A552C44A4F2F334019473
:1004A000A0FB0254C1F3130141F48011C3F3130301
:1004B00043F4801301FB024400FB034E840A970AB5
:1004C00044EA815447EA8357A4FB076802958D0AE2
:1004D00005FB07854FEA932C04FB0C542705029D6E
:1004E0004FEA065847EA1637B5EB08056EEB070CDE
:1004F000870E920E47EA811742EA8312A7FB020198
:10050000B6EB0B0164EB00042B0D43EA0C335E18D1
:1005100044EB1C50DA465146E7FB0201C5F31304D5
:100520004FEA0B3343EA14534FEA0432019C43EA87
:100530000603A4F10C040294009CCDE900B400F081
:1005400042F903B0BDE8F08F00200146F9E72DE93C
:10055000F04D81EA030404F0004B21F000451446FD
:100560004FF0000A23F0004150EA050220D054EA7F
:1005700001021DD0C5F30A570246C5F31303C1F3A8
:100580001300C1F30A5640F4801543F48013A7EB1F
:100590000608101BD64608F2FD3873EB050002D39F
:1005A00008F1010801E092185B41B8F1000F03DA8D
:1005B00000200146BDE8F08D00204FF48011064672
:1005C00084460EE0171B73EB050705D3121B63EB84
:1005D000050306434CEA010C49084FEA3000921823
:1005E0005B4150EA0107EDD152EA030012D082EAE2
:1005F000040083EA0501084305D0101BAB4106D275
:100600000122002306E000224FF0004302E06FF0D9
:10061000010253101AEB06004CEB085110EB0A00D4
:1006200041EB0B01BDE8F04D00F0BEB80EB5C10FB7
:1006300080EAE0700844CA07002140F233438DE8A5
:100640000E000A460B4600F0BEF803B000BD00F0F5
:10065000004230F000400AD0C10D01F56071C0F3D6
:10066000160042EA0151C2084007114370470020BA
:100670000146704701F0004330B421F0004150EAD8
:10068000010206D00A0DA2F56072C1F31301002A1F
:1006900002DC30BC00207047440F44EAC104C100B2
:1006A000E01830BC00EBC25000F047B830B50B4644
:1006B000014600202022012409E021FA02F59D4292
:1006C00005D303FA02F5491B04FA02F52844151E66
:1006D000A2F10102F1DC30BD202A04DB203A00FA4D
:1006E00002F1002070479140C2F1200320FA03F389
:1006F000194390407047202A04DB203A21FA02F087
:100700000021704721FA02F3D040C2F1200291404B
:10071000084319467047202A06DBCB17203A41FAD6
:1007200002F043EAE07306E041FA02F3D040C2F17E
:10073000200291400843194670470029A8BF70471E
:10074000401C490008BF20F00100704710B4B0FA07
:1007500080FC00FA0CF050EA010404BF10BC7047A2
:1007600049B1CCF1200421FA04F411FA0CF118BFBC
:10077000012121430843A3EB0C01CB1D4FEA00618B
:100780004FEA102042BF002010BC704700EBC3505E
:1007900010440029A4BF10BC7047401C490008BF8A
:1007A00020F0010010BC704710B5141E73F1000456
:1007B00008DA401C41F1000192185B411A4301D153
:1007C00020F0010010BD2DE9F04D92469B4611B17D
:1007D000B1FA81F202E0B0FA80F220329046FFF7DF
:1007E0007BFF04460F4640EA0A0041EA0B015346EC
:1007F0005A46084313D0114653EA010019D0C8F1F4
:1008000040025046FFF777FF05460E4650465946D0
:100810004246FFF761FF084305D0012004E020466F
:100820003946BDE8F08D0020054346EAE0762C43CA
:1008300037430A986305E40AA0EB08000022FD0A8A
:1008400044EA47540A3002D500200146E9E7010591
:1008500010196941DDE9084500196941BDE8F04D0D
:10086000A2E7C1F30A52C1F3130140F2FF3341F48E
:1008700080119A4202DA00200146704740F2334369
:100880009A42A2F2334202DC5242FFF734BFFFF732
:1008900023BF000030B5041E71F1000404DB4FF0EB
:1008A0000044404264EB0101141E73F1000405DBB7
:1008B0001C464FF00043524263EB04038B4208BFD7
:1008C000824230BD30B5041E71F1000404DB4FF0EC
:1008D0000044404264EB0101141E73F1000405DB87
:1008E0001C464FF00043524263EB0403994208BF99
:1008F000904230BD064C074D06E0E06840F0010331
:1009000094E8070098471034AC42F6D3FFF740FC58
:100910005C8700087C8700082DE9F04D00231A460B
:100920001B1A8A4103DB00200146BDE8F08DC1F3AC
:100930000A52C1F3130141F480154FF0000BD107A7
:1009400002D100186D41521E0027044640F2FF11EB
:10095000384601EB620A3E468046024600204FF4CC
:100960008011FFF7C8FEC2197141BB1846EB0100A8
:10097000B4EB030C75EB000C04D3E41A65EB000533
:1009800017460E46241908F101006D4180463428AF
:10099000E3DDF91946EB0600091BA84103D24FF02D
:1009A000FF32134601E0002213461BEB070046EB23
:1009B0000A51BDE8F04DFFF7F7BE10B50246906B47
:1009C000016C11F0500F06D0016C11F0100F28D0FF
:1009D00000F00CFA10BD016C41F400710164016873
:1009E0008A6812F0405F19D1027EBAB9CA6A12F45D
:1009F000700F03D08A6812F4806F0FD14A6822F01A
:100A000020024A60016C21F480710164016C11F4D0
:100A1000805F03D1016C41F00101016400F0E4F951
:100A200010BD806BC16CBDE810401046084710B582
:100A3000806B40210164416C41F00401416400F08D
:100A4000D5F910BD10B5806B00F0CFF910BD0000D6
:100A50004A494A6822F440324A604A6843681A4365
:100A60004A6001684A6822F480724A6001684A68F4
:100A7000036942EA03224A6001684A6822F0407230
:100A80004A6001684A6883681A434A6001688A6854
:100A900022F400628A6001688A68C3681A438A6027
:100AA000816A6FF07062D14214D001688A6822F0C6
:100AB00070628A6001688A68836A1A438A60016882
:100AC0008A6822F040528A6001688A68C36A1A43C1
:100AD0008A6009E001688A6822F070628A600168B1
:100AE0008A6822F040528A6001688A6822F0020215
:100AF0008A6001688A68037E42EA43028A6090F84D
:100B0000201089B101684A6842F400624A600168B5
:100B10004A6822F460424A6001684A68436A5B1E80
:100B200042EA43324A6004E001684A6822F4006203
:100B30004A600168CA6A22F47002CA620168CA6A1D
:100B4000838B5B1E42EA0352CA6201688A6822F400
:100B500000728A6001688A6890F8303042EA432265
:100B60008A6001688A6822F480628A6001688A6803
:100B7000406942EA802088607047000000230140FD
:100B8000FEE7000001680A4BCAB2103AA3FB02322A
:100B90001209084B9B5CC365032A04D96FF3090152
:100BA000091D816502E06FF309018165806D704761
:100BB000ABAAAAAA34810008014600208A6A8B6980
:100BC000002B0FD0B3F5005F1DD08AB3012A30D0BF
:100BD000022A2ED0032A04D1C96A11F0807F00D0E6
:100BE000012070471AB1012A07D0022AF9D1C96A37
:100BF00011F0807FF5D001207047C96AB1F1C07F44
:100C0000FAD1012070475AB1012A0BD0022A07D02D
:100C1000032AF7D1C96AB1F1C07FF3D1012070472F
:100C200001207047C96A11F0807FFAD00120704717
:100C3000FFE70120704710B4D0F800C0DCF8004096
:100C400024F48024CCF80040D0F800C0CCF8043064
:100C50008368402B05D0036899600068C26010BCAF
:100C6000704703689A600068C16010BC70477047A5
:100C70007047000038B44FF0000CCDF800C090F879
:100C80003C20012A1BD0012280F83C200A6807245E
:100C9000092A17D90368DD680A3A02EB420204FA0E
:100CA00002F225EA0202DA600A788B680A3A02EB5D
:100CB000420293400268D4682343D36014E038BCF6
:100CC0000220704703681D6902EB420204FA02F237
:100CD00025EA02021A610A788B6802EB420293400D
:100CE00002681469234313614A681F24072A15D236
:100CF00003685D6B521E02EB820204FA02F225EADF
:100D000002025A630A8893B20A79521E02EB8202E7
:100D100093400268546B234353632CE00D2A15D291
:100D200003681D6BD21F02EB820204FA02F225EA6D
:100D300002021A630A8893B20A79D21F02EB820276
:100D400093400268146B2343136314E00368DD6A65
:100D50000D3A02EB820204FA02F225EA0202DA629A
:100D60000A8893B20A790D3A02EB82029340026834
:100D7000D46A2343D362184A184B04689C4206D1B4
:100D80000C68122C03D1546844F480045460046845
:100D90009C421CD10B68102B01D0112B17D153682A
:100DA00043F4000353600968102910D10C490D4A1F
:100DB0000968B1FBF2F101EB810149000091009952
:100DC00029B10099491E009100990029F9D180F8B4
:100DD0003CC038BC00207047002301400020014087
:100DE0005800002040420F0070477047704770B5B0
:100DF00004460025002C03D0206C002610B107E02B
:100E0000012070BD204600F01DF8666484F83C6047
:100E1000206C10F0100F04D0012584F83C602846A7
:100E200070BD206C20F4885040F002002064204601
:100E3000FFF70EFE6664206C20F0020040F0010017
:100E40002064EAE77047000038B5044600230093A9
:100E500094F83C00012809D0012084F83C00206867
:100E6000D0F808C01CF0010F02D018E0022038BDF5
:100E7000D0F808C04CF0010CC0F808C04448DFF8B6
:100E800014C10068B0FBFCF000EB4000009000983B
:100E900028B10098401E009000980028F9D12068E1
:100EA000D0F808C01CF0010F70D0D4F840C02CF06E
:100EB000010C2CF4C06C4CF4807CC4F840C0406839
:100EC00010F4806F05D0206C20F4005040F4805066
:100ED0002064206C10F4805F04D0606C20F0060069
:100EE000606400E0636484F83C302B4DA36B2B48B6
:100EF000D863A36B2A481864A36B2A48D864236874
:100F00006FF0220018602068436843F080634360FC
:100F10002068836843F4807383602068134600F17F
:100F20004C0C0A466146A06B00F0EFF868681E4959
:100F300010F01F0F07D02068884227D1816811F078
:100F4000405F1FD022E02068884212D0174A9042AA
:100F500004D1D1F8042312F01F0F0AD0A0F180426F
:100F6000B2F5913212D1D1F8041301F01F0110290A
:100F70000CD2816811F0405F08D1816841F0804156
:100F8000816003E0816841F080418160002038BDCC
:100F90005800002040420F0000230140BB09000818
:100FA000450A00082F0A00080020014000210140E6
:100FB00090F83510022903D0802141650120704747
:100FC000052180F835100068016821F001010160F9
:100FD000002070472DE9F041044600F017FA05465D
:100FE000DCB1002684F83460022084F835002068E3
:100FF000016821F0010101602068006810F0010F14
:1010000013D000F003FA401B052809D920206065A1
:10101000032084F83500BDE8F0810120BDE8F081AF
:101020002068006810F0010FEBD121680868234A9E
:101030001040A3686268D4F810C01A43E36843EA1A
:101040000C031A4363691A43A3691A43E3691A43F9
:10105000236A1A431043626A042A03D1236BE26AAB
:101060001A43104308602068406920F00701606A55
:1010700040EA0105012704280ED1A06A0543E06A71
:1010800050B12046FFF798FD30B14020606584F8EC
:1010900035700120BDE8F081206845612046FFF7EA
:1010A00071FD94F85C103F2202FA01F181606665DF
:1010B00084F835700020BDE8F08100003F8010F01A
:1010C00070B50446002594F8340001280DD00120A5
:1010D00084F8340094F835C00020BCF1010F06D02C
:1010E00084F834000225284670BD022070BD4FF000
:1010F000020C84F835C060652046FFF79CFD20682F
:10110000016841F001010160EDE770B5044600257A
:10111000A66D94F8340001280DD0012084F8340025
:1011200094F835C00020BCF1010F06D084F83400DB
:101130000225284670BD022070BD4FF0020C84F8D5
:1011400035C060652046FFF776FD94F85C003F21CE
:1011500001FA00F0B0602068016841F016010160FA
:10116000206C20B12068016841F00801016020680E
:10117000016841F001010160DBE7000070B5044641
:1011800000F044F90546B4F1FF3F02D0044800786E
:10119000044400F03BF9401BA042FAD370BD0000AC
:1011A0005C0000202DE9F84F002203248E4E8F4F63
:1011B0000F25012303FA02F80B6803EA08034345ED
:1011C0007DD1D1F804C0BCF1010F08D0BCF1020FF1
:1011D00005D0BCF1110F02D0BCF1120F1DD1D0F817
:1011E00008904FEA420C04FA0CFA29EA0A09D1F8ED
:1011F0000CA00AFA0CFC4CEA090CC0F808C0D0F8A4
:1012000004C02CEA080C91F80480C8F3001808FA0E
:1012100002F848EA0C0CC0F804C0D0F80C904FEA71
:10122000420C04FA0CF829EA0809D1F808A00AFAD5
:101230000CFA4AEA0909C0F80C90D1F80490B9F107
:10124000020F02D0B9F1120F15D14FEAD20900EB0B
:101250008909D9F820B04FEA427A4FEADA6A05FAEA
:101260000AFE2BEA0E0BD1F810E00EFA0AFA4AEA4F
:101270000B0AC9F820A0D0F8009029EA080891F8D4
:10128000049009F0030909FA0CFC4CEA080CC0F8B8
:1012900000C0D1F804C01CF0805F10D0D6F800C0A8
:1012A0004CF4804CC6F800C0D6F800C00CF4804C5A
:1012B000CDF800C022F0030C0CF1804900E075E08D
:1012C00009F59839D9F808C84FEA82784FEA1878B2
:1012D00005FA08FA2CEA0A0AA0F1804CBCF5003C99
:1012E0006AD0A0F1804CBCF5013C68D0A0F1804CE4
:1012F000BCF5023C66D0A0F1804CBCF5033C64D048
:10130000A0F1804CBCF5043C62D0A0F1804CBCF54F
:10131000053C60D0A0F1804CBCF5063C5ED0A0F14D
:10132000804CBCF5073C5CD04FF0080C0CFA08FC74
:101330004CEA0A0CC9F808C8DFF8B480D8F800C035
:101340002CEA030CD1F8049019F4803F01D04CEA48
:10135000030CC8F800C0DFF89C80D8F800C02CEA65
:10136000030CD1F8049019F4003F01D04CEA030CAF
:10137000C8F800C0D7F800C02CEA030CD1F80480EC
:1013800018F4801F01D04CEA030CC7F800C0DFF846
:101390006880D8F800C02CEA030CD1F8049019F446
:1013A000001F01D04CEA030CC8F800C0521C102AE0
:1013B000FFF4FFAEBDE8F88F4FF0000CB6E74FF03A
:1013C000010CB3E74FF0020CB0E74FF0030CADE7B0
:1013D0004FF0040CAAE74FF0050CA7E74FF0060CFE
:1013E000A4E74FF0070CA1E744380240083C014055
:1013F000003C0140043C01400C3C0140002A01D06B
:10140000816170470904816170470000014880686C
:10141000704700005C00002070B50446002C04D02A
:1014200094F83D00002510B106E0012070BD84F85D
:101430003C50204600F0E0FA242084F83D0020686B
:10144000016821F0010101602068016841F4004158
:1014500001602068016821F40041016000F076FC21
:10146000544B6168994203D85349884203D304E03E
:101470005249884201D2012070BD5149B0FBF1F1BF
:101480002268D2F804C02CF03F0C4CEA010CC2F8E0
:1014900004C062689A4201D84A1C07E04FF4967271
:1014A00051434FF47A72B1FBF2F14A1C2168D1F832
:1014B00020C02CF03F0C42EA0C020A62616899429B
:1014C00010D84900401EB0FBF1F2521CC2F30B02CF
:1014D000042A01D2042026E0B0FBF1F0401CC0F346
:1014E0000B0020E0A268002A50D001EBC10303EBFF
:1014F0000113A0F1010CBCFBF3F35B1C43F480432C
:101500001B051B0D4AD0002A4AD001EBC10202EB99
:101510000111401EB0FBF1F0401CC0F30B0040F481
:10152000804040F400402168CA6922F0FF0222F4A2
:101530004F421043C861216AE06901432068026894
:1015400022F0C00211430160E16820690143206874
:10155000826822F0FF0222F4034211438160A169F4
:10156000606901432068C26822F0FF021143C16034
:101570002068016841F0010101602564202084F8A1
:101580003D00256384F83E50002070BD01EB41030F
:10159000A0F1010CBCFBF3F35B1CB1E70120C2E737
:1015A00001EB4101401EB0FBF1F0401CC0F30B0009
:1015B000B7E70000A086010080841E0000093D00FE
:1015C00040420F002DE9FF4F83B004468A46934600
:1015D000DDF84490DDF84080129EFFF717FF0546C6
:1015E00094F83D00202803D007B00220BDE8F08F1A
:1015F00019230122A0492046009501F04BF918B1AA
:1016000007B00220BDE8F08F94F83C00012808D014
:10161000012084F83C002068016811F0010F04D01B
:1016200007E007B00220BDE8F08F016841F001013A
:1016300001602068016821F400610160222084F8C3
:101640003D00402084F83E0000272764C4F8248031
:10165000A4F82A90608D20858848E0620195009664
:101660005A4651462046069B00F0D4FF18B107B0F9
:101670000120BDE8F08F208D10B3012829D0022869
:1016800035D02068416980690290208D002800F0E3
:10169000E880DFF8EC81208D032800F2B780012874
:1016A00034D002284AD033460022414620460095D5
:1016B00001F0F0F800286CD007B00120BDE8F08FF1
:1016C0002068416981690291016841F400710160FB
:1016D000DBE72068016821F48061016020684169CE
:1016E00081690291016841F400710160CDE72068D1
:1016F000016821F4806101602068016841F40061A3
:1017000001602068416980690290BEE72A4631463F
:10171000204601F080F918B107B00120BDE8F08F34
:1017200020680069616A0870606A401C6062208DF0
:10173000401E2085608D401E60858EE0334600226D
:1017400041462046009501F0A5F818B107B00120E8
:10175000BDE8F08F2068016841F4007101602068E5
:101760000069616A0870606A401C6062218D491ED0
:101770002185618D491E6185216809690170606A52
:10178000401C6062208D401E2085608D401E60855B
:1017900063E02068016821F48061016020680069CD
:1017A000616A0870606A401C6062208D401E20855E
:1017B000608D401E608533460022414620460095DC
:1017C00001F068F818B107B00120BDE8F08F20687B
:1017D000016841F40071016020680069616A087065
:1017E000606A401C6062218D491E2185618D491E01
:1017F0006185216809690170606A401C6062208D02
:10180000401E2085608D401E608526E02A463146B8
:10181000204601F000F918B107B00120BDE8F08FB3
:1018200020680069616A0870606A401C6062218DEE
:10183000491E2185618D491E61852268516911F01B
:10184000040F0AD011690170606A401C6062208D2B
:10185000401E2085608D401E6085208D00287FF40D
:101860001AAF202084F83D0084F83E7084F83C7064
:1018700007B00020BDE8F08F020010000000FFFF5D
:10188000040001002DE9FF4F83B004468A469346C9
:10189000DDF84490DDF84080129EFFF7B7FD054665
:1018A00094F83D00202803D007B00220BDE8F08F57
:1018B000192301224E492046009500F0EBFF18B194
:1018C00007B00220BDE8F08F94F83C00012808D052
:1018D000012084F83C002068016811F0010F04D059
:1018E00007E007B00220BDE8F08F016841F0010178
:1018F00001602068016821F400610160212084F802
:101900003D00402084F83E0000272764C4F824806E
:10191000A4F82A90608D20853648E06201950096F3
:101920005A4651462046069B00F01EFF18B107B0EC
:101930000120BDE8F08F208D002836D02A463146A0
:10194000204601F0A6F858B1206C042804D1206884
:10195000016841F40071016007B00120BDE8F08F1B
:10196000606A216800780861606A00F1010CC4F8BF
:1019700024C0208D401E80B22085618D491E618566
:101980002368596911F0040F0CD058B19CF800007D
:101990001861606A401C6062208D401E2085608D49
:1019A000401E6085208D0028C8D12A463146204639
:1019B00000F042FF58B1206C042804D1206801686F
:1019C00041F40071016007B00120BDE8F08F20688C
:1019D000016841F400710160202084F83D0084F822
:1019E0003E7084F83C7007B00020BDE8F08F000026
:1019F000020010000000FFFF10B586B0044614215D
:101A00006846FEF75AFC14492068884221D11348E1
:101A1000016841F0020101600068694600F00200BF
:101A200005904FF440700090122001900120029028
:101A300003200390042004900948FFF7B3FB0748F4
:101A40001030016841F400110160006800F40010DA
:101A5000059006B010BD0000005400403038024030
:101A60000004024002488168027811448160704796
:101A70005C00002010B50B48016841F40071016062
:101A8000016841F480610160016841F48071016086
:101A9000032000F085F8002000F006F800F026F89A
:101AA000002010BD003C024070B504460D4D4FF4BF
:101AB0007A712878B1FBF0F00B490968B1FBF0F0BE
:101AC00000F0D6FB08B1012070BD102C07D2002217
:101AD0002146501E00F030F86C60002070BD0120DF
:101AE00070BD00005C000020580000200A4808B5C6
:101AF000016841F480410160006800F4804000907A
:101B00000548001F016841F080510160006800F045
:101B10008050009008BD00004438024000280ADBD5
:101B200000F01F01012202FA01F14009800000F1DA
:101B3000E020C0F80011704710B4184B1B68C3F3C5
:101B40000223C3F1070CBCF1040F01D94FF0040CC0
:101B50001C1D072C01D2002300E0DB1E012404FA27
:101B60000CFCACF1010C0CEA0101994004FA03F3FE
:101B70005B1E1A401143002806DB00F1E02009013A
:101B800080F8001410BC704700F00F0000F1E02056
:101B9000090180F8141D10BC704700000CED00E036
:101BA00000F00700064A11684FF6FF03194041EAAA
:101BB000002040F0FD7040F0806010607047000031
:101BC0000CED00E02DE9F04704460D46002C13D043
:101BD000DFF85491D9F80000EFB200F00F00A842EE
:101BE0000DD289F80070D9F8000000F00F00A8426B
:101BF00005D00120BDE8F0870120BDE8F08720680E
:101C00004A4E10F0020F14D010F0040F03D03068C9
:101C100040F4E0503060207810F0080F03D03068B6
:101C200040F4604030603068A16820F0F000084364
:101C30003060207810F0010F3ED060683C490128E8
:101C400008D002280DD003280BD0096811F0020F2C
:101C500028D00AE0096811F4003F06D10120BDE850
:101C6000F087096811F0007F19D0316821F0030175
:101C700008433060FFF7CAFB80463068616800F0B7
:101C80000C00B0EB810F17D041F2883AFFF7BEFB92
:101C9000A0EB0800504508D90320BDE8F0870120DB
:101CA000BDE8F0870120BDE8F0873068616800F08A
:101CB0000C00B0EB810FE9D1D9F8000000F00F0063
:101CC000A8420AD989F80070D9F8000000F00F0086
:101CD000A84202D00120BDE8F087207810F0040F60
:101CE00005D03068E16820F4E05008433060207887
:101CF00010F0080F06D03068216920F4604040EAF7
:101D0000C100306000F042F831680A4AC1F30311A3
:101D1000515CC8400849086008480068FFF7C4FEE5
:101D20000020BDE8F0870000003C02400838024077
:101D3000003802401C81000858000020600000208C
:101D400001480068704700005800002000B5FFF708
:101D5000F7FF04490968044AC1F38221515CC84075
:101D600000BD0000083802402C81000800B5FFF7D4
:101D7000E7FF04490968044AC1F34231515CC84095
:101D800000BD0000083802402C81000810B517483B
:101D9000006810F00C01164816D04310042912D028
:101DA000082911D1134C216801F03F02216811F478
:101DB000800F0AD02068C0F38810A0FB0301002325
:101DC000FEF700FA09E0184610BD21680023C1F3B0
:101DD0008811A1FB0001FEF7F5F92168C1F301416B
:101DE000491C4900B0FBF1F010BD0000083802406A
:101DF0000024F400043802402DE9F84F0446002C7A
:101E000010D02078FA4FFB4D10F0010F63D03868E6
:101E100000F00C0004280DD0386800F00C000828F1
:101E200003D011E00120BDE8F88FF348006810F4FA
:101E3000800F09D0286810F4003F4CD0606800285B
:101E400049D10120BDE8F88F6068B0F5803F14D01B
:101E5000B0F5A02F16D0286820F4803028602868BC
:101E600020F480202860606810B3FFF7CFFA0646A0
:101E7000286810F4003F0ED02DE0286840F4803030
:101E80002860F0E7286840F480202860286840F443
:101E900080302860E7E7FFF7B9FA801B642802D991
:101EA0000320BDE8F88F286810F4003FF3D012E05B
:101EB000FFF7ACFA0646286810F4003F0BD0FFF796
:101EC000A5FA801B642802D90320BDE8F88F286892
:101ED00010F4003FF3D12078C84E10F0020F4FF0FD
:101EE000000957D0386810F00C0F15D0386800F092
:101EF0000C00082804D1C048006810F4800F0BD0F3
:101F0000E06880B301203060FFF780FA80462868DF
:101F100010F0020F12D01EE0286810F0020F05D05A
:101F2000E068012802D00120BDE8F88F2868216907
:101F300020F0F80040EAC10028602BE0FFF766FAC5
:101F4000A0EB0800022802D90320BDE8F88F28681A
:101F500010F0020FF2D02868216920F0F80040EA62
:101F6000C100286016E0FFE7C6F80090FFF74EFAC0
:101F70008046286810F0020F0CD0FFF747FAA0EB5C
:101F80000800022802D90320BDE8F88F286810F065
:101F9000020FF2D1207810F0080F35D09848DFF802
:101FA00064A26169C1B101210160FFF72FFA804687
:101FB000DAF8000010F0020F26D1FFF727FAA0EBA5
:101FC0000800022802D90320BDE8F88FDAF80000E3
:101FD00010F0020FF1D017E0C0F80090FFF716FAEA
:101FE0008046DAF8000010F0020F0DD0FFF70EFA6D
:101FF000A0EB0800022802D90320BDE8F88FDAF828
:10200000000010F0020FF1D1207810F0040F71D011
:102010004FF000087C48006810F0805F0AD17A48D1
:10202000016841F080510160006800F0805000902C
:102030004FF00108DFF8D4B1DBF8000010F4807F26
:102040001BD1DBF8000040F48070CBF80000FFF7F4
:10205000DDF98246DBF8000010F4807F0DD1FFF738
:10206000D5F9A0EB0A00022802D90320BDE8F88FB9
:10207000DBF8000010F4807FF1D0A068DFF890B1A9
:10208000012818D005281DD0DBF8000020F0010041
:10209000CBF80000DBF8000020F00400CBF80000D3
:1020A000A06840B3FFF7B2F98246DBF8000010F0F9
:1020B000020F14D03EE0DBF8000040F00100CBF846
:1020C0000000EDE7DBF8000040F00400CBF8000072
:1020D000DBF8000040F00100CBF80000E0E7FFF77C
:1020E00095F9A0EB0A0141F28830814204D903201E
:1020F000BDE8F88F26E005E0DBF8000010F0020FE5
:10210000EDD017E0FFF782F98246DBF8000010F00F
:10211000020F0FD0FFF77AF9A0EB0A0141F28830E5
:10212000814202D90320BDE8F88FDBF8000010F0EF
:10213000020FEFD1B8F1010F04D13348016821F04B
:1021400080510160A069E0B3396801F00C010829F1
:102150006AD0022810D0C6F86090FFF757F90446FD
:10216000286810F0007F2CD0FFF750F9001B0228E0
:1021700055D90320BDE8F88FC6F86090FFF746F9FF
:102180000746286810F0007F0BD0FFF73FF9C01B0F
:10219000022802D90320BDE8F88F286810F0007FDC
:1021A000F3D1216AE069A26A0843616A4FF0FF3304
:1021B000890103EB520241EA0241084394F82C10D2
:1021C00000E052E040EA01610B4801600120306606
:1021D000FFF71CF90446286810F0007F45D1FFF78F
:1021E00015F9001B022815D90320BDE8F88F1BE064
:1021F00008380240003802400438024000004742DC
:10220000800E47427438024040380240007000405F
:1022100070380240286810F0007FE0D025E0286880
:1022200010F0007FA0D120E001281CD03868E269BE
:1022300000F48001914214D1226A00F03F019142E2
:102240000FD147F6C071626A0140914209D1A26A7A
:1022500000F44031914204D1E16A00F0706088429C
:1022600003D00120C1E70120BFE70020BDE7000047
:10227000401EB0F1807F01D3012070474FF0E02174
:102280004861044AF020107000208861072008612E
:102290000020704723ED00E07047000010B50446B1
:1022A00022681068D168526900F00F03002B0AD130
:1022B00010F0200F07D011F0200F04D02046BDE809
:1022C000104000F004BF002B71D002F0010301F4B4
:1022D000907C53EA0C0C6AD010F0010F08D011F476
:1022E000807F05D0D4F83CC04CF0010CC4F83CC051
:1022F00010F0040F08D012F0010F05D0D4F83CC044
:102300004CF0020CC4F83CC010F0020F06D012F0E2
:10231000010F03D0E26B42F00402E26310F0080FF9
:1023200007D001F020021A4303D0E26B42F008020A
:10233000E263E26B002A2ED010F0200F05D011F0DE
:10234000200F02D0204600F0C2FE20684069C0F392
:102350008010E16B11F0080F00D108B3204600F0A7
:102360009BFE2068416911F0400F15D0416921F0B2
:1023700040014161606B58B118490165606BFEF71F
:1023800017FE002807D0606B016DBDE810400847BC
:102390002046FFF781FF10BD2046FFF77DFF10BDEF
:1023A0002046FFF779FF0020E06310BDFFE710F043
:1023B000800F07D011F0800F04D02046BDE81040F8
:1023C00000F0A2BF10F0400FEFD011F0400FECD0A2
:1023D0002046BDE8104000F06DBE000089300008C6
:1023E00070B50446002C04D094F83900002510B1D3
:1023F00006E0012070BD84F83850204600F022F835
:10240000242084F839002068C16821F40051C1609B
:10241000204600F0ABFE2068016921F49041016183
:102420002068416921F02A0141612068C16841F4B6
:102430000051C160E563202084F8390084F83A0037
:10244000002070BD70B586B0044614216846FDF7C3
:1024500034FF254E21682548022201230324072545
:10246000B1421AD1214914310E6846F010060E60AF
:10247000096801F010010591016841F00101016056
:102480000068694600F00100059060028DE83D009B
:102490001748FEF787FE06B070BD164EB142FAD15E
:1024A000124910310E6846F480260E60096801F466
:1024B00080210591016841F00201016000686946D0
:1024C00000F0020005904FF440608DE83D000A489E
:1024D000FEF768FE002211462720FFF72DFB27207C
:1024E000FFF71CFBD7E70000001001403038024026
:1024F00000000240004800400004024070472DE9FF
:10250000F84304460D4690461E4694F839002028AC
:1025100002D00220BDE8F8836DB3B8F1000F2AD0D5
:1025200094F83800012829D0012084F838004FF0B1
:102530000009C4F83C90212084F83900FEF766FFBA
:102540000746A4F82480A4F8268084F83890E08C0C
:10255000A0B3E08C401EE084A068B0F5805F10D08E
:102560003B46002280212046009600F000FFF0B19B
:102570000320BDE8F8830120BDE8F8830220BDE810
:10258000F8833B46002280212046009600F0EFFEB3
:1025900010B10320BDE8F88328882168C0F3080043
:1025A0004860206908B16D1C05E0AD1C03E021689E
:1025B00015F8010B4860E08C0028CAD13B46002288
:1025C00040212046009600F0D2FE10B10320BDE865
:1025D000F883202084F839000020BDE8F883704794
:1025E000FEE701684A6912F4806F11D06FF48062CF
:1025F0004A6100210163202280F83D2080F83E10CE
:10260000026C42F00402026480F83C100120704722
:10261000002070472DE9F84F0446DDF828A00B9DF7
:102620000F4690461E462068016841F480610160B3
:102630002068016841F480710160534600224FF028
:1026400001112046009500F025F94FF4007948B1BA
:102650002068006810F4807F01D0C4F84090032007
:10266000BDE8F88F216807F0FE000861DFF8F4B0DC
:102670002B4652465946204600F066F910B101201B
:10268000BDE8F88F20684169806900902A4651466C
:10269000204600F0FEF950B1206C042804D12068D7
:1026A000016841F4007101600120BDE8F88F3046F7
:1026B00008F0FF0601280DD021684FEA18200861B4
:1026C0002A465146204600F0E4F970B1206C0428F7
:1026D00003D007E02068066109E02068016841F442
:1026E000007101600120BDE8F88F206806612A466C
:1026F0005146204600F0CDF950B1206C042804D199
:102700002068016841F4007101600120BDE8F88F84
:102710002068016841F480710160534600224FF047
:1027200001112046009500F0B5F848B12068006816
:1027300010F4807F01D0C4F840900320BDE8F88FEA
:102740002168F8B240F0010008612B465246594614
:10275000204600F0F9F810B10120BDE8F88F002004
:10276000BDE8F88F020001002DE9F8430446DDF8CA
:102770002090099F0D46164698462068016841F44E
:10278000807101604B4600224FF0011120460097F6
:1027900000F080F850B12068006810F4807F02D00B
:1027A0004FF4007020640320BDE8F883216805F031
:1027B000FE0008613B464A461E49204600F0C4F828
:1027C00010B10120BDE8F88320684169806900905C
:1027D0003A464946204600F05CF950B1206C042886
:1027E00004D12068016841F4007101600120BDE856
:1027F000F883F5B2B8F1010F0CD02168300A0861F6
:102800003A464946204600F044F970B1206C04284D
:1028100003D007E02068056109E02068016841F401
:10282000007101600120BDE8F88320680561002087
:10283000BDE8F8830200010070B504460D46164657
:102840002068406910F0040F13D12046FFF7C9FE3D
:1028500008B1012070BDB5F1FF3F05D0FEF7D6FDF0
:10286000801BA84207D835B12068406910F0040FDA
:10287000EBD0002070BD00202063202184F83D10A3
:1028800084F83E00216C41F02001216484F83C0072
:10289000012070BD2DE9F0470446DDF820900D467B
:1028A00017461E46C5F307482068B8F1010F22D02D
:1028B000806925EA00000004000C26D00020B84200
:1028C00016D1B6F1FF3F06D0FEF7A0FDA0EB090040
:1028D000B0421CD8DEB1B8F1010F28D02068806961
:1028E00025EA00000004000C2CD00020B842E8D0FB
:1028F0000020BDE8F087406925EA00000004000CD4
:1029000001D00020DBE70120D9E70120D7E7002034
:102910002063202184F83D1084F83E00216C41F0B2
:102920002001216484F83C000120BDE8F087206884
:10293000406925EA00000004000C01D00020D5E722
:102940000120D3E70120D1E72DE9F04704460D46E9
:1029500016461F46C5F307482068B8F1010F26D078
:10296000806925EA00000004000C3AD04FF000090D
:102970004FF0200A2068406910F4806F1ED0206854
:10298000016841F40071016021686FF48060486162
:10299000C4F8309084F83DA084F83E90206C40F05C
:1029A0000400206484F83C900120BDE8F087406971
:1029B00025EA00000004000C13D0D7E7B6F1FF3F72
:1029C00005D0FEF723FDC01BB0420DD866B1B8F1AB
:1029D000010F18D02068806925EA00000004000C6F
:1029E000C8D10020BDE8F087C4F8309084F83DA03D
:1029F00084F83E90206C40F02000206484F83C90E5
:102A00000120BDE8F0872068406925EA0000000445
:102A1000000CAFD1E5E72DE9F04104460D4616461E
:102A20002068406910F0400F22D100274FF02008A5
:102A30002068406910F0100F0FD021686FF010006F
:102A40004861276384F83D8084F83E70206C2064E0
:102A500084F83C700120BDE8F081FEF7D7FC801BB4
:102A6000A84208D83DB12068406910F0400FDFD07F
:102A70000020BDE8F081276384F83D8084F83E7033
:102A8000206C40F02000206484F83C700120BDE8F8
:102A9000F08170B504460D4616462068406910F076
:102AA000800F13D12046FFF79CFD08B1012070BDB7
:102AB000B5F1FF3F05D0FEF7A9FC801BA84207D85F
:102AC00035B12068406910F0800FEBD0002070BD58
:102AD00000202063202184F83D1084F83E00216C02
:102AE00041F02001216484F83C00012070BD7CB5D8
:102AF00014460D4606466B4606223B21682000F030
:102B0000ABF800280BD1BDF8001049BA3180BDF8F0
:102B1000021049BA2980BDF8041049BA21807CBD51
:102B20007CB514460D4606466B46062243216820B6
:102B300000F092F800280BD1BDF8001049BA31809E
:102B4000BDF8021049BA2980BDF8041049BA2180A5
:102B50007CBD000008B56B4602224121682000F0D0
:102B60007BF8BDF8000040BA00B2FDF75FFD9FEDB5
:102B70000D1B53EC112BFDF7EAFC9FED0C1B53ECE6
:102B8000112BFDF7CBFBFDF775FD00EE100ADFED15
:102B9000090A20EE200ABDEEC00A10EE100A00B2AB
:102BA00008BD00000000000000407540A4703D0A10
:102BB000D74342400000C84210B500F0F7F880212A
:102BC0006B2000F093F84FF4FA70FEF7D7FA00216B
:102BD0006B2000F08BF8032000F053F8002000F089
:102BE0004BF8012000F06AF80021382000F07EF850
:102BF00000216A2000F07AF80021232000F076F806
:102C00008021372000F072F8752000F011F8682854
:102C100001D0012010BD01216B2000F067F80021D8
:102C20006C2000F063F8012000F048F8002010BD8F
:102C30001FB540F6FF73012203A98DE80E0013466D
:102C40000246D0210348FEF7BDFC9DF80C0004B0FD
:102C500010BD00001C0200203EB54000CDE900324E
:102C60000A4640F6FF740146029401230148FEF72C
:102C7000A9FC3EBD1C020020C006010E1C2000F075
:102C800035B8C006010E1B2000F030B8BC2801D3B7
:102C9000012110E0622801D302210CE02A2801D38F
:102CA000032108E0142801D3042104E00A2801D3F9
:102CB000052100E006211A2000F018B810B50446DE
:102CC0004FF47A70844201D9044602E0042C00D209
:102CD0000424B0FBF4F0401EC1B2192000F006F845
:102CE0006008BDE81040FFF7D1BF000003B583B016
:102CF00040F6FF73012204A98DE80E001346024638
:102D0000D0210248FEF7BEFD05B000BD1C02002028
:102D10003EB54000CDE900320A4640F6FF74014658
:102D2000029401230148FEF7ADFD3EBD1C020020C8
:102D300030B587B014216846FDF7BFFA1948002462
:102D4000016841F080010160016801F08001059196
:102D5000016841F002010160016801F00201059182
:102D6000016841F001010160016801F00101059174
:102D7000016841F00801016000680B4D00F0080097
:102D8000059000221F212846FEF738FB1F200090E7
:102D90000120CDE90104694628460394FEF702FAB2
:102DA00007B030BD30380240000C02400D4810B56D
:102DB0000B4901600C49416000214FF48042816061
:102DC000C0E9031241618161C1610162FEF724FB28
:102DD000002803D0BDE81040FDF74ABF10BD000039
:102DE000005400401C020020801A06000C4810B558
:102DF0000A4901604FF4E1314160002181600C22F9
:102E0000C160C0E904128161C161FFF7E9FA0028DD
:102E100003D0BDE81040FDF72BBF10BD00100140EE
:102E2000700200200C4810B50A4901604FF4E131EE
:102E30004160002181600C22C160C0E904128161FF
:102E4000C161FFF7CDFA002803D0BDE81040FDF7BF
:102E50000FBF10BD00480040B0020020FEE77047E1
:102E600070470000F0B51A4C87B00025206840F08C
:102E7000020020602068012600F002000096059004
:102E80000327CDE9017569461248FEF78BF92068E2
:102E900040F0010020602068009600F001000590DD
:102EA000CDE9017569460C48FEF77CF9206840F0D1
:102EB000040020602068009600F004000590CDE931
:102EC000017569460548FEF76DF907B0F0BD0000D1
:102ED0003038024000040240000002400008024076
:102EE000F8B538480024016841F4800101600068A9
:102EF000354900F4800000903448012600F120029A
:102F0000846001600915C0E90341490041618900FD
:102F100081614911C161490282E85200C4620463BF
:102F20004460FEF757F8294A0323143A28492748F2
:102F3000FEF7C6F823481430016841F4807101603F
:102F40000068234900F48070009020484C396030BC
:102F50000327016031040661C0E90114067680F898
:102F600020404462C462C761C46080F8306044613C
:102F7000FDF73DFF154D0820A8352946EC6085E892
:102F8000C100A1F14800FDF775FE0220C5E900402F
:102F9000C5E902742946A1F14800FDF76BFE0A203D
:102FA000C5E90007C5E902742946A1F14800FDF70B
:102FB00061FEA5F1BC01BDE8F840012201F17400F9
:102FC000FDF742BF30380240106402406401002027
:102FD0004C20014010B5FFF745FFBDE81040FFF75A
:102FE0007FBF7047FEF73EBD30B593B030216846D5
:102FF000FDF763F914210CA8FDF75FF919480025C6
:10300000016841F080510160006800F0805011902B
:103010001548016841F4804101600068022400F411
:103020008040119001200090000401908001CDE9C2
:10303000064008AA0420A82182E813000B906846E5
:10304000FEF7DAFE0CA90F2081E831004FF4A05002
:103050000F90E002109005210CA8FEF7B3FD13B00D
:1030600030BD000040380240007000400548016853
:1030700041F47001016003494FF00060803908603D
:103080007047000088ED00E010B5806B0021C1851D
:10309000C184FFF701F910BD0168CA6822F490727B
:1030A000CA6001684A6922F001024A61202180F861
:1030B0003A10704710B50168CA6822F04002CA6031
:1030C000202180F83910FFF78AFA002010BD10B5D2
:1030D00090F83A10222901D0022010BD8168B1F584
:1030E000805F11D0016919B30168496801F07F025E
:1030F000816A4B1C83620A70C18D491E0904090C48
:10310000C1851CD0002010BD816A02693AB10268F5
:103110005268D2B20A80816A491C8162ECE7026877
:103120005268C2F308020A80816A891C8162E3E75F
:1031300001684A68816A4B1C83620A70DCE7016897
:10314000CA6822F02002CA600168CA6822F480724C
:10315000CA6001684A6922F001024A61202180F8B0
:103160003A10FFF7CBF9002010BD00002DE9F04127
:10317000044620680169E26821F44051114301616D
:103180002169A068E269084361691143014320682D
:10319000C26822F4037222F414421143C160206811
:1031A0004169A26921F4407111434161E0695349C9
:1031B000534A1927534D32264FF00008B0F5004FFF
:1031C00027D02068904201D0884274D1FEF7CEFD0E
:1031D00001466068830F8200A1FB0701FCF7F2FF44
:1031E0000146A5FB002040096FF01802424301EBA5
:1031F000820106EB0111A5FB0121490901F0F00252
:1032000002EB001001F00F01084421688860BDE85E
:10321000F0812068904201D0884225D1FEF7A6FDBA
:10322000014660680218A1FB070148EB0803FCF7A0
:10323000C9FF0346A5FB0010410918460A016FF0BB
:103240001803594300EB810006EBC000A5FB0010FA
:10325000400900F0F80102EB410100F007000844CA
:1032600021688860BDE8F081FEF770FD0146606866
:103270000218A1FB070148EB0803FCF7A3FF034674
:10328000A5FB0010410918460A016FF018035943C5
:1032900000EB810006EBC000A5FB0010400900F028
:1032A000F80102EB410100F0070008442168886042
:1032B000BDE8F081FFE7FEF749FD01466068830F36
:1032C0008200A1FB0701FCF77DFF0146A5FB002062
:1032D00040096FF01802424301EB820106EB011135
:1032E000A5FB0121490901F0F00202EB001001F0F9
:1032F0000F01084421688860BDE8F0810014014096
:10330000001001401F85EB5190F83910212901D0A0
:10331000022070478168B1F5805F0CD0016A4A1CB9
:103320000262026809785160C18C491E0904090CC7
:10333000C18410D019E0016A02680988C1F308014C
:103340005160016919B1016A491C0162ECE7016A27
:10335000891C0162E8E70168CA6822F08002CA603D
:103360000068C16841F04001C160002070472DE94C
:10337000F0410446069D884617461E4620680068B0
:1033800038EA000020D00020B84227D1B5F1FF3F35
:103390001CD025B1FEF73AF8801BA84216D9206848
:1033A000C16821F4D071C1602068416921F0010138
:1033B0004161202084F8390084F83A00002084F824
:1033C00038000320BDE8F0810120DDE720680068B7
:1033D00038EA000005D00020B842D7D00020BDE870
:1033E000F0810120F8E700000148FEF757BF000018
:1033F000B0020020FEE700000FB4054B10B503A992
:10340000044A029800F0D8FD10BC5DF814FB0000DF
:10341000CD590008740000200FB4084B10B504A962
:1034200002AA039800F0C8FD044602A9002001F09A
:1034300046F9204610BC5DF814FB0000BF460008AA
:1034400003B401984100009850EAC12018BF04203D
:103450004A0D18BF40F0010040F2FF72B2EB515F1D
:1034600008BF40F00200012808BF052002B07047E5
:1034700070B5C1482DED020B2DED0E8B82B0119D64
:1034800025F000449FEDBEDB9FEDBFEB84423EDBA9
:10349000A4F140511098A1F17F6108430FD0BC48BE
:1034A000844202DC28D1109830B39DED100B02B09D
:1034B000BDEC0E8B02B0BDE8704000F071BC9DED1C
:1034C000100B53EC1D2B51EC100BFCF7CEFF9DEDB8
:1034D000100B41EC180B53EC1E2B51EC100BFCF7AE
:1034E000C4FF53EC182BFCF719FF41EC100B02B092
:1034F000BDEC0E8B02B070BD012000F095FC02B057
:10350000BDEC0E8B02B0BDE8704000F05DBCA14880
:103510009FEDA18B844256DA9DED100BB4F1795FDB
:103520000ADA51EC100BFFF78BFF042808BF00F0FC
:103530005BFC9DED100BDAE753EC102B51EC100BFC
:10354000FCF793FF41EC190B95480621B0EE490AB0
:10355000F0EE690A784400F0A7FB53EC192B51EC0C
:10356000100BFCF782FF41EC1A0B8E48B0EE490AB3
:10357000F0EE690A0421784400F096FB53EC192B15
:1035800051EC100BFCF771FF53EC182BFCF7C6FE47
:1035900041EC100B51EC1A0B53EC102BFCF7D7FF3E
:1035A000CDE900019DED000B53EC102B9DED100BB0
:1035B00051EC100BFCF759FF9DED101B53EC112B38
:1035C000FCF7ACFED2E09DED100B51EC100B02F0BD
:1035D000F1F953EC182BFCF745FF9FED730BCDE988
:1035E000000153EC102B9DED000B51EC100BFCF780
:1035F0003CFF41EC190B6E480621B0EE490AF0EE93
:10360000690A784400F050FB53EC192B51EC100B75
:10361000FCF72BFF41EC1B0B6648B0EE490AF0EEBD
:10362000690A0421784400F03FFB53EC192B51EC5C
:10363000100BFCF71AFF53EC182BFCF76FFE41EC54
:103640001C0B51EC190B03F0EDFD41EC180B5A4823
:103650009FED5BABA04222DC53EC1C2B51EC1B0B0F
:10366000FCF775FFCDE900019DED000B51EC180B47
:1036700053EC102BFCF7F9FE53EC182BFCF74EFE25
:1036800053EC1A2BFCF7F1FE53EC1D2BFCF7E7FE75
:1036900053EC1E2BFCF7E6FE41EC100B5FE08DEDCA
:1036A000008B002000909DED000B51EC180B53ECAB
:1036B000102BFCF733FE9DED000B41EC1E0B53EC81
:1036C000102B51EC100BFCF7D0FE53EC192BFCF730
:1036D000C9FE53EC1E2BFCF73AFF41EC190B53ECDF
:1036E0001C2B51EC1B0BFCF732FF41EC1B0B53EC7A
:1036F0001A2B51EC190BFCF7B8FE53EC1D2BFCF701
:10370000B1FE41EC190B53EC1A2B51EC180BFCF7E2
:10371000ACFE53EC1B2BFCF7A8FE53EC192BFCF76B
:103720009EFE9DED000B41EC180B53EC1A2B51EC57
:10373000100BFCF79AFE9FED249B53EC192BFCF722
:1037400091FE41EC100B51EC180B53EC102BFCF7D5
:1037500086FE53EC192BFCF785FE41EC100B002D77
:103760003FF7C5AE51EC100B81F0004141EC100B5E
:10377000BDE60000000000000000F03F0000000077
:10378000075C143326A6913C182D4454FB21F93FC5
:103790000000F07F0000E03F000000000000F03F6C
:1037A000E84B0000F64B0000000000000000E03F86
:1037B0003A4B0000484B00003333EF3F000000005D
:1037C0000000000000000040182D4454FB21E93F98
:1037D00070B59B482DED020B2DED068B079D25F056
:1037E0000044A04218DC9748844202DC0AD10698C3
:1037F00040B19DED060BBDEC068B02B0BDE87040FC
:1038000000F0CEBA002DCCBF9FED8F0B9FED900B3B
:10381000BDEC068B02B070BD8F48A04215DD8F480D
:10382000A042D8BF4FF0FF3458DD9DED060B51ECA0
:10383000100BFFF705FE042808BF00F0D5FA9DED38
:10384000060BBDEC068B02B070BD9DED060B51EC76
:10385000100B02F0AFF8CDE9060181489FED828B95
:10386000A0423CDD8248A0421FDD00249FED82ABD8
:103870009DED060B53EC1A2B51EC100BFCF74EFD93
:103880009DED060B41EC190B53EC1A2B51EC100B70
:10389000FCF7EBFD53EC182BFCF7E1FD53EC192B77
:1038A000FCF755FECDE9060149E09DED060B01242C
:1038B00053EC182B51EC100BFCF730FD9DED060B73
:1038C00041EC190B53EC182B51EC100BFCF7C7FD16
:1038D00053EC192BFCF73BFECDE906012FE06848BD
:1038E000A0421FDD02249FED689B9DED060B53EC6B
:1038F000192B51EC100BFCF7B8FD53EC182BFCF70F
:103900000DFD9DED060B41EC180B53EC192B51EC02
:10391000100BFCF7A4FD53EC182BFCF718FECDE9B7
:1039200006010CE09DED060B032453EC102B9FEDDC
:10393000580B51EC100BFCF70AFECDE906019DED8A
:10394000060B53EC102B51EC100BFCF78EFD41ECE9
:10395000180B53EC182BFCF788FD41EC190B4E4863
:103960000621B0EE490AF0EE690A784400F09CF9AD
:1039700053EC182B51EC100BFCF777FD41EC180BB6
:103980004648B0EE490AF0EE690A0521784400F095
:103990008BF953EC192B51EC100BFCF766FD41EC45
:1039A000100B51EC180B53EC102B002C0EDAFCF71B
:1039B000B5FC9DED061B53EC112BFCF756FD9DED60
:1039C000061B53EC112BFCF74DFD35E0FCF7A6FC74
:1039D0009DED061B53EC112BFCF747FD41EC100B42
:1039E0002F48784400EBC40090ED001B51EC100B05
:1039F00053EC112BFCF733FD9DED061B53EC112B03
:103A0000FCF72DFD41EC100B2648784400EBC40078
:103A100090ED001B51EC100B53EC112BFCF722FD29
:103A200041EC100B002DA2BFBDEC068B02B070BDA7
:103A300051EC100B81F0004141EC100B01E700004C
:103A4000000010440000F07F182D4454FB21F93F82
:103A5000182D4454FB21F9BF0000DC3F0000203E3C
:103A60000000F33F00000000000000000000F03FF5
:103A70000000E63F000000000000000000000040E1
:103A80000080034000000000000000000000F83F3C
:103A9000000000000000F0BF8A480000404800001D
:103AA000CA4700008247000070B56F4E2DED040B31
:103AB0002DED048B82B0DDF824C0DDE907235C42E4
:103AC0002CF000411C4341EAD474069D22F00040D2
:103AD000B44205D86C422C4340EAD474B4420BD9AA
:103AE0009DED081B9DED060B02B0BDEC048B04B0F0
:103AF000BDE8704000F05EB9ACF14054A4F17F64C1
:103B00001C430BD0022404EAAC7444EAD27405438B
:103B10009FED578B9FED582B07D015E09DED060BC1
:103B200051EC100B00F018FE42E0002C11BF012CEC
:103B30009DED060B02B0BDEC048B04BF04B070BD5C
:103B4000022C38D0032C3BD00B439FED4D1B9FED37
:103B50004E0B0AD0B14218D1B04209D121F08041B8
:103B600020F08040099107900FE0002A15DA10E05C
:103B7000474B7B44002C08BF93ED000B0DD0012C6C
:103B800010D0022C17D0032C1AD0B0421DD1002A1D
:103B900003DAB0EE410AF0EE610A02B0BDEC048B2C
:103BA00004B070BD93ED000B51EC100B81F000419F
:103BB00041EC100BF1E7B0EE480AF0EE680AECE7D2
:103BC000B0EE420AF0EE620AE7E7401A00159FEDF8
:103BD000329B3C28C8BF8DED000B17DCBCF1000FF9
:103BE000BCBF10F13C0F8DED009B0FDB9DED080B72
:103BF00053EC102B9DED060B51EC100BFCF7A7FCC2
:103C000001F0D8FE00F0A8FDCDE90001B4B1012C0F
:103C100010D0022C9FED220B53EC102B9DED000BCE
:103C200051EC100B19D0FCF71AFC53EC182BFCF7D5
:103C300016FCBDE7019880F0004001909DED000B5F
:103C400053EC192B51EC100BFCF724FE04BF02209F
:103C500000F0EAF89DED000B9FE7FCF700FC53EC49
:103C6000182BFCF7FFFBA3E70000F07F000000002B
:103C7000182D4454FB210940182D4454FB2109C040
:103C8000182D4454FB21F9BF182D4454FB21F93F52
:103C9000B24600000000000000000000000000002C
:103CA000075C143326A6A13C70B504462DED028BAB
:103CB0004D1E00EBC500B0EE408AF0EE608A90ED3C
:103CC000000B35F0060017D053EC182B51EC100BFD
:103CD000FCF7CBFB41EC100B6D1E04EBC50090ED27
:103CE000001B51EC100B53EC112BFCF717FB41ECB4
:103CF000100B35F00600E7D1022D36D0042D1CD074
:103D0000062D1CBFBDEC028B70BD53EC182B51EC83
:103D1000100BFCF7AAFB94ED0A1B53EC112BFCF7DC
:103D2000FDFA53EC182BFCF7A0FB94ED081B53ECA9
:103D3000112BFCF7F3FA41EC100B53EC182B51EC60
:103D4000100BFCF792FB94ED061B53EC112BFCF7C8
:103D5000E5FA53EC182BFCF788FB94ED040B53ECBD
:103D6000102BFCF7DBFA41EC100B53EC182B51EC49
:103D7000100BFCF77AFB94ED021B53EC112BFCF7B4
:103D8000CDFA53EC182BFCF770FB94ED001B53ECB1
:103D9000112BFCF7C3FABDEC028B41EC100B70BD8C
:103DA00010B553EC102B51EC100BFCF7B7FA41ECAB
:103DB000100B10BD10B553EC112B51EC100BFCF790
:103DC000ADFA41EC100B10BD9FED050B10B553EC97
:103DD000102B51EC100BFCF7BAFB41EC100B10BD93
:103DE00000000000000000009FED050B10B553EC33
:103DF000102B51EC100BFCF738FB41EC100B10BDF5
:103E0000000000000000001002E008C8121F08C1F6
:103E1000002AFAD170477047002001E001C1121F4B
:103E2000002AFBD17047000001490860704700007C
:103E3000780000202DE9FF5F82B00021DDE9043029
:103E4000020DDDF840B0034318D044F61050A2F242
:103E5000FF3242431514119801281FD0A5EB0B0027
:103E6000401C5FEA000A4FF000064E4FDFF8389121
:103E7000B046504615D5CAF1000413E0119801244C
:103E80004AA3012801D16FEA0B010298119AC0E9F7
:103E90000031C0E9024206B0BDE8F09FCBF100005E
:103EA000DFE704460021404A491842EB0450CDE9BF
:103EB000001012E0E00707D032463B464046494634
:103EC000FCF7D3FA8046894632463B4610461946EF
:103ED000FCF7CBFA06460F466410002CEAD1DDE968
:103EE0000401DDE90023BAF1000F06DAFCF7BDFAA0
:103EF00042464B46FCF7B9FA05E0FCF728FB424680
:103F00004B46FCF724FB04460E460022284BFCF7E8
:103F1000D9FC03D84FF0FF30014607E00022254BC3
:103F200020463146FCF7FAF9FCF79BFC102409E027
:103F3000002C0ADB0A220023FCF744F9039B3032F1
:103F40001A55641E50EA0102F2D1641C039AC4F1AE
:103F500011031444119A012A03D0012208430DD100
:103F60000AE0084304D000204FF0110B119072E7D3
:103F7000A3EB0B056D1E0DE05B4504DD4FF0000269
:103F800005F1010504E003DA4FF00002A5F1010597
:103F9000002AECD002981199C0E90231C0E900452D
:103FA00079E70000000014400000F03F30000000FE
:103FB0000000F0430000E03F2DE9FF4F95B09A4626
:103FC000884606460025EEE1252877D100242746BD
:103FD000F94A0121039400E0044316F8013F203B15
:103FE00001FA03F01042F7D130782A2811D06FF08F
:103FF0002F033078A0F13002092A16D8039A44F032
:10400000020402EB820203EB42021044761C03908E
:10401000EFE758F8042B0392002A03DA504244F4E5
:104020000054039044F00204761C30782E2816D1F8
:1040300016F8010F44F004042A280DD06FF02F0267
:104040003078A0F13003092B09D807EB870302EB86
:104050004303C718761CF3E758F8047B761C3078C6
:104060006C280FD006DC4C2817D068280DD06A28A1
:1040700014D104E0742810D07A280FD10DE044F454
:1040800000140AE044F4801401E044F4401472780F
:10409000824202D104F58014761C761C30786628A2
:1040A0000BD013DC582877D009DC002875D04528C0
:1040B000F6D04628F4D047281AD193E118E06328B7
:1040C00035D0642879D0652812D18BE1702873D05F
:1040D00008DC6728F1D069286FD06E280DD06F28D2
:1040E00006D1ACE073282CD0752874D0782853D032
:1040F0005246179990476D1C54E1C4F302500228B0
:1041000009D003280DD0D8F8001004280DD00D6078
:1041100008F1040846E1D8F80010EA17C1E9005296
:10412000F6E7D8F800100D80F2E70D70F0E718F808
:10413000041B8DF8001000208DF80100EB460120D3
:1041400003E058F804BB4FF0FF3061074FF0000167
:1041500002D40DE009F101018946B9420FDA814527
:10416000F8DB1BF809100029F4D108E009F101017E
:1041700089468142FADB1BF809100029F6D1039821
:104180005346A0EB090721463846179A00F080FAFB
:10419000284400EB090507E044E008E10DE01BF8C6
:1041A000010B524617999047B9F10109F7D25346CE
:1041B00021463846179AF2E039E00A21C4F3025248
:1041C0004FF0000B0091022A06D058F8040BC117DB
:1041D000032A09D00AE023E008F1070020F00702D3
:1041E000F2E80201904605E000B2C117042A01D1AD
:1041F00040B2C117002906DA0A460021404261EBAD
:1042000002012D2202E0220504D52B228DF8042084
:10421000012203E0E20701D02022F7E7914657E0B0
:104220000A2100E010214FF0000B00910BE010215B
:104230004FF0000B44F004040827009103E008202D
:104240004FF0000B0090C4F30252022A05D058F838
:10425000040B0021032A08D008E008F1070020F031
:104260000702F2E80201904603E080B2042A00D17E
:10427000C0B24FF0000922072AD53278702A07D041
:10428000DDF800C08CF0100C5CEA0B0C05D00EE0E1
:1042900040228DF80420012208E050EA010306D0F4
:1042A00030238DF804308DF8052002229146009BC2
:1042B00083F0080353EA0B030AD150EA010201D14B
:1042C000620705D530228DF804204FF001097F1ECA
:1042D0003278582A04D039A20C920CAA02920BE030
:1042E0003BA2F9E75B46009AFBF76CFF0C9B9B5CDB
:1042F000029A521E0292137050EA0102F2D1029801
:1043000004A9081A00F1200B600702D524F48034B8
:1043100000E001275F4502DDA7EB0B0000E0002075
:1043200000EB0B01009003984944401A0390E0030E
:1043300006D453462146179A039800F0A9F905447C
:10434000002706E001A85246C05D179990476D1CF2
:104350007F1C4F45F6DBE0030CD553462146179AE8
:10436000039800F095F9054404E03020524617996F
:1043700090476D1C0099481E00900029F5DC08E06C
:104380000298029952460078491C02911799904769
:104390006D1CBBF10001ABF1010BF1DC5BE100F046
:1043A00065F90544761C307800287FF40DAE19B00D
:1043B0002846BDE8F08F0000092801003031323373
:1043C0003435363738396162636465660000000051
:1043D000303132333435363738394142434445463B
:1043E00000000000600700D4062708F1070020F055
:1043F0000700F0E80223804603F0004C5FEA0C005F
:1044000001D097A009E0200501D596A005E0E007BE
:1044100001D095A001E0AFF24C001390307823F06A
:10442000004365280CD006DC452809D046281DD05D
:1044300047287FD13BE0662818D067287AD136E03C
:104440000021112F01DB112000E0781CCDE90001D3
:1044500004A90CA8FFF7EEFCDDE90D010C9A4FF062
:10446000000B07F10109109200914EE04FF000405F
:104470000097CDE9011004A90CA8FFF7DBFCDDE9EA
:104480000D020C9B0F994FF0000B91461093009278
:1044900011B9791C00EB0109B7EB090003D4C0F195
:1044A000FF3B07F10109A9EB0700019042E0012F52
:1044B00000DA01270021112F01DD112000E038462C
:1044C000CDE9000104A90CA8FFF7B4FCDDE90D015A
:1044D0000C9A00914FF0000BB946109221070FD4AF
:1044E000009A4A4503DA914601E0A9F10109B9F1C0
:1044F000010F05DD109AA9F10101515C3029F4D0BA
:10450000B84202DA10F1040F03DA0121CDE90110FB
:1045100010E0002803DC8344A9EB000102E0411C09
:10452000494500DD8946A0EB0B00401C01904FF08F
:1045300000400290200705D40198484502DB4FF067
:10454000FF30019000208DF84B0002980DF14B07D1
:10455000B0F1004F25D002200C902B200D90029836
:1045600000280CDA404202902D200D9007E00A212D
:104570000298FCF79BF83031029007F8011D0C9966
:10458000481E0C900029F2DC02980028EFD1791E19
:104590000D980870307800F0200040F0450007F8D2
:1045A000020D11A8C01BC01D02901398007800B125
:1045B000012000EB0901019801EBE0710298014430
:1045C0000398401A401E0390E00306D45346214648
:1045D000179A039800F05CF805441398007818B116
:1045E0005246179990476D1CE00323D55346214648
:1045F000179A039800F04CF805441BE0BBF1000F3C
:1046000007DB0098584504DD1098179910F80B0047
:1046100001E0179930205246904701980BF1010BA9
:10462000401E05F10105019004D12E205246179934
:1046300090476D1CB9F10001A9F10109DEDC05E02C
:1046400017F8010B5246179990476D1C0299481EA6
:1046500002900029F4DC53462146179A03989EE6FF
:104660002D0000002B000000200000002DE9F0418B
:10467000044600251E461746880404D405E0394642
:104680002020B0476D1C641EF9D52846BDE8F08196
:104690002DE9F041044600251E469046C80301D589
:1046A000302700E02027880404D505E0414638463D
:1046B000B0476D1C641EF9D52846BDE8F0810A6834
:1046C000531C0B6010707047FEB506460D46002463
:1046D000684601F087F900229FED1B1A6B46012105
:1046E00056F8227055F82200381A00D5404200EEE4
:1046F000100A03EB8200B8EEC00AD0ED000A20EEEB
:10470000010AF5EEC00AF1EE10FA0DD0C0EE201A43
:10471000B7EE000A0D4F31EEC00AB0EEC00A10EE3F
:10472000100AB84207DC09E010EE100A084F3844BE
:10473000084FB84202D301FA02F00443521C032A84
:10474000CEDB2046FEBD000000008037295C0F3E16
:10475000666666C19A99D90010B541EC100BFFF757
:1047600037F851EC100B10BD08B560B120208DF862
:10477000000028208DF8010030208DF8020038203C
:104780008DF8030004E0A32204216846FBF78EFDA8
:104790006A46042140F69E2002F05AFC02F018F905
:1047A00008BD00003EB5044602208DF80000CA2076
:1047B0008DF80100E3208DF8020009208DF8030038
:1047C0006A460421682002F043FCA3208DF8000013
:1047D000610609D5C0218DF80110C8218DF802109D
:1047E000C2218DF8031005E08DF801008DF802005C
:1047F0008DF8030014F4C07F09D0C4218DF8041093
:10480000CC218DF80510C6218DF8061005E08DF835
:1048100004008DF805008DF806008DF808008DF86D
:1048200007008DF809006A460A2140F6A72002F029
:104830000FFCA0074FF0D80503D020208DF8000012
:1048400001E08DF800506A46012140F6B62002F0E2
:10485000FFFBA00601D5012000E0002000F08EF84B
:1048600014F4C07F1ED0E0050AD5B2208DF80000F8
:104870008B208DF80100B6208DF802009B2009E006
:10488000B0208DF8000080208DF80100B4208DF854
:10489000020090208DF803006A46042140F6A22011
:1048A00002F0D6FBE1074FF40B6022D0F8218DF81F
:1048B00000106A46012102F0CBFBFA21072000F02C
:1048C0004BFB072000F016FB012000F033FB6420B7
:1048D00000F0F2FB4FF4FA7000F0FEFBC82125480F
:1048E00000F0D0FA282000F0E5FA0A2000F0F2FAF1
:1048F00005E08DF800506A46012102F0A9FBA007EF
:1049000003D5D9208DF8000001E08DF800506A46EB
:10491000012140F23D7002F09BFB600701D50120B0
:1049200000E0002000F048F8E00601D5012000E09A
:104930000020FFF719FF104D44F00800688102F0D5
:1049400047F80020A873600601D50620A87314F468
:10495000C07F02D0A87B801DA87314F0140F02D072
:10496000A87B1030A873A00702D0A87B001DA873F5
:1049700000203EBD09E3CA027C0000200EB54FF4C2
:10498000976310B106A107C901E008A207CA8DE824
:1049900007006A460921184602F05AFB0EBD0000C6
:1049A000B8AAB38DB4980D355D000000B8AAAAAAC4
:1049B000B088C3C5C700000008B560B1C0208DF83D
:1049C0000000C2208DF80100C4208DF80200C6202E
:1049D0008DF8030004E08B2204216846FBF766FC97
:1049E0006A46042140F6982002F032FB01F0F0FF05
:1049F00008BD0000C8234FF48062024940F6F6303B
:104A000001F0C8BE047300082DE9FF4F89B01746B6
:104A1000DDE916520024554E884681462C80A24678
:104A2000B07B694601F062FF4FF0FF3B18B158467A
:104A30000DB0BDE8F08F708910F0140F4ED0BDF8A6
:104A400000109DF8022049BA090441EA02229DF8AB
:104A500003100A433A60BDF804109DF8063049BAC5
:104A6000090441EA03219DF80730121419437960C3
:104A7000BDF808309DF80A405BBA1B0443EA0423E2
:104A80009DF80B4009142343BB60BDF80C409DF812
:104A90000EC064BA240444EA0C2C9DF80F404CEA82
:104AA000040C1024C7F80CC01B144FEA2C4712FB4F
:104AB00002F211FB012113FB03F217FB0722114441
:104AC000A1F17061B1F1007F04D901F081FFA5F877
:104AD00000A0ACE7298841F480712980420669462C
:104AE00011D50A19A41D13885BBAA8F800305388A1
:104AF0005BBAA8F80230928852BAA8F804202A8833
:104B000042F008022A8010F4C07F11D00A19A41DB7
:104B100013885BBAA9F8003053885BBAA9F8023051
:104B2000928852BAA9F804202A8842F070022A809A
:104B3000800716D00C44E07800F0C00500F03F017B
:104B40006078C00706D0C80801F007013268491C28
:104B500002B190476078000703D5716809B1A809D0
:104B600088470C9801F078FB002061E77C0000206A
:104B70002DE9FF41044603A801F0BCFCBDF80C0080
:104B8000410CC3032F48008900F0030254F822505F
:104B9000420700D56D42C0F3C102860654F82220B8
:104BA00000D55242C0F38116C00554F8264000D506
:104BB0006442A5FB0367E81700FB037005FB0100D7
:104BC000850045EA9670A2FB0367D51705FB0375C0
:104BD00002FB0152950045EA9672A4FB0367E517B4
:104BE00005FB037304FB01318B0043EA9671030E4E
:104BF0008DF80030030C8DF80130030A8DF8023077
:104C00008DF80300100E8DF80400100C8DF80500CF
:104C1000100A8DF80600080E8DF80800080C8DF8B3
:104C20000900080A8DF80A008DF807208DF80B108E
:104C30006A460C214FF4257002F00AFA04B0BDE870
:104C4000F08100007C00002030B5044613A285B03E
:104C500007CA8DE807004FF0FF35C82C16D8C820CA
:104C6000B0FBF4F1491E080A8DF80C008DF80D1008
:104C700003AA022140F2162002F0EAF930B96A468E
:104C80000C2140F6C12002F0E3F910B1284605B02E
:104C900030BD054884810020F9E70000FEF2ABC476
:104CA000AAF1DFDFBBAFDFDF7C000020F8B53049C1
:104CB000098901F0030250F822404A0700D56442F6
:104CC000C1F3C1028B0650F8222000D55242C1F335
:104CD000811350F82330C80500D55B42254984FB79
:104CE0000140850045EA947082FB0142A40F44EA2A
:104CF000820483FB0121950F45EA8105010E8DF8A1
:104D00000010010C8DF80110010A8DF802108DF8C9
:104D100003006A4604214FF4747002F099F94FF0D1
:104D2000FF3688B9200E8DF80000200C8DF80100A8
:104D3000200A8DF802008DF803406A4604214FF4E2
:104D4000757002F085F908B13046F8BD280E8DF86F
:104D50000000280C8DF80100280A8DF802008DF85B
:104D600003506A4604214FF4767002F071F9F8BDE1
:104D70007C00002009E3CA022DE9FF4104463CA063
:104D800004F00303006802903AA0006803903AA080
:104D900006683AA0056802A8C15C8DF80010C4F34B
:104DA000C101425C8DF80120C4F38112805C8DF852
:104DB000020003A8C35C8DF80430415C8DF8051037
:104DC000805C8DF806006A46032140F2264002F01E
:104DD0003FF94FF0FF37E0BB01AA032140F22A4020
:104DE00002F036F9A8BBCDE9006560070BD59DF848
:104DF000000040F001008DF800009DF8040040F034
:104E000001008DF80400A0060BD59DF8010040F0CC
:104E100001008DF801009DF8050040F001008DF8BB
:104E20000500E0050BD59DF8020040F001008DF86B
:104E300002009DF8060040F001008DF806006A4669
:104E400003214FF4886002F003F910B901AA03218D
:104E500000E004E040F2314002F0FAF818B13846C0
:104E600004B0BDE8F081064804810020F8E70000A6
:104E70004CCD6C000CC92C003656760026466600D8
:104E80007C0000204FF47A7290FBF2F008B54843A2
:104E9000010E8DF80010010C8DF80110010A8DF83B
:104EA00002108DF803006A4604214FF4AE7002F040
:104EB000CFF808BD0521B0FBF1F008B5010A8DF867
:104EC00000108DF801006A4602214FF4AD7002F027
:104ED000BFF808BD0521B0FBF1F008B5010A8DF857
:104EE00000108DF801006A4602214FF4AC7002F008
:104EF000AFF808BD08B500218DF80010C10702D039
:104F000030218DF80010810705D59DF8001041F083
:104F10000C018DF80010400705D59DF8000040F009
:104F200003008DF800006A4601214FF4A47002F0DE
:104F30008FF808BD08B560B1042800D90420401ED0
:104F40008DF800006A46012140F24F1002F080F80F
:104F500008BD0120F3E7000070B504462DED028B7B
:104F600082B040074FF0FF357ED0B1F5C86F7BD8D7
:104F700000EE101AB8EE400ADFED460A01A880EEF6
:104F8000208A01F099FA9DF80400022806D004282E
:104F900010D0082835D0102874D13EE09FED3E0A8D
:104FA00028EE000ABCEEC00A10EE100A9FED3B0A84
:104FB00082B20AE09FED3A0A28EE000ABCEEC00A6F
:104FC00010EE100A9FED370A82B228EE000A6E46F4
:104FD000BCEEC00A10EE100A81B2100A8DF8000073
:104FE0008DF80120080A8DF802008DF80310E00703
:104FF00026D0324602214FF4EA7002F029F898BB1D
:1050000017E09FED290A28EE000ABCEEC00A10EE58
:10501000100A9FED260A82B2D7E79FED250A28EEF7
:10502000000ABCEEC00A10EE100A9FED220A82B2FE
:10503000CBE7B21C02214FF4927002F009F898B944
:10504000A0070DD56A4602214FF4EC7002F000F87B
:1050500050B9B21C02214FF4947001F0F9FF18B955
:10506000600714D56A4600E00CE002214FF4EE70B0
:1050700001F0EEFF30B9B21C02214FF4967001F03E
:10508000E7FF20B1284602B0BDEC028B70BD0020C6
:10509000F9E7000000004843000080460000404659
:1050A000000000460000C04500008045000040456B
:1050B000000000450000C0440521B0FBF1F008B538
:1050C000010A8DF800108DF801006A4602214FF4A4
:1050D000EF7001F0BDFF08BD0521B0FBF1F008B590
:1050E000010A8DF800108DF801006A4602214FF484
:1050F000ED7001F0ADFF08BD70B54FF47A76002475
:1051000033461D2210A11848FDF7F9F9174D04E0A8
:10511000641CA4B20120FCF731F8287860B1B442D5
:105120000CD24FF4FA50FCF729F811A11148FBF703
:10513000CFF818B1002402E0B442E9D30124E88892
:1051400002F0A8F8204670BD41542B43574A415005
:105150003D224D41424F222C226A696469616E34BE
:105160003035220D0A000000B00200206800002047
:105170004F4B0000F002002070B54FF47A76002407
:105180003346492210491148FDF7B9F9104D04E0A2
:10519000641CA4B20120FBF7F1FF287860B1B4428F
:1051A0000CD241F28830FBF7E9FF0AA10A48FBF76D
:1051B0008FF818B1002402E0B442E9D30124E88852
:1051C00002F068F8204670BD10870008B002002089
:1051D000680000204F4B0000F00200202D4810B561
:1051E0000068C16841F02001C1602BA0FEF704F9FE
:1051F00030A20D2130A000F09BF908B132A044E0AC
:1052000039A0FEF7F9F82BA206213DA000F090F995
:1052100008B13DA039E043A0FEF7EEF825A2112128
:1052200047A000F085F908B14AA02EE052A0FEF791
:10523000E3F800F045F908B154A026E05AA0FEF7C3
:10524000DBF8FFF759FF08B15EA01EE067A0FEF78C
:10525000D3F818A2C2216B4800F06AF908B16AA01D
:1052600013E072A0FEF7C8F8FFF786FF08B176A03A
:105270000BE07EA0FEF7C0F80EA24321814800F0AB
:1052800057F908B180A000E087A0BDE81040FEF704
:10529000B3B80000B0020020312E205345545449C9
:1052A0004E472053544154494F4E204D4F44450DD5
:1052B0000A0000004F4B000041542B43574D4F4410
:1052C000453D310D0A0000004661696C656420743B
:1052D0006F207365742073746174696F6E206D6FD5
:1052E00064652E0D0A000000322E20434C4F5345BA
:1052F0002045535038323636204543484F0D0A007A
:10530000415445300D0A00004661696C65642074A3
:105310006F2064697361626C65206563686F2E0D30
:105320000A000000332E204E4F204155544F204399
:105330004F4E4E45435420574946490D0A00000040
:1053400041542B43574155544F434F4E4E3D300D22
:105350000A0000004661696C656420746F2064690E
:105360007361626C65206175746F20636F6E6E652A
:1053700063742E0D0A000000342E2052455345540C
:1053800020455350383236360D0A00004661696CAC
:10539000656420746F2072657365742045535038BE
:1053A0003236362E0D0A0000352E20434F4E464928
:1053B000472057494649204E4554574F524B0D0AF6
:1053C000000000004661696C656420746F20636FA3
:1053D0006E6669677572652057692D4669206E652E
:1053E00074776F726B2E0D0A00000000362E204D70
:1053F000515454205553455220434F4E4649470D72
:105400000A000000808200084661696C65642074AF
:105410006F20636F6E666967757265204D515454D5
:1054200020757365722E0D0A00000000372E204390
:105430004F4E4E454354204D5154542042524F4BF1
:1054400045520D0A000000004661696C65642074D5
:105450006F20636F6E6E65637420746F204D5154BE
:10546000542062726F6B65722E0D0A00382E205325
:10547000554253435249424520544F5049430D0A27
:1054800000000000448300084661696C6564207474
:105490006F2073756273637269626520746F207424
:1054A0006F7069632E0D0A00392E20455350383233
:1054B000363620494E4954204F4B2121210D0A00F8
:1054C00070B500244FF47A73082212A11448FDF736
:1054D00016F8144D4FF4FA6604E0641CA4B20120DF
:1054E000FBF74CFE287860B1B4420CD241F2883010
:1054F000FBF744FE0CA10D48FAF7EAFE18B10024B0
:1055000002E0B442E9D30124E88801F0C3FE20465A
:1055100070BD000041542B5253540D0A000000008E
:10552000B0020020680000204F4B0000F002002075
:105530002DE9F04117460A464FF47A7601460025D8
:1055400033461548FCF7DBFF144C03E001206D1CCB
:10555000FBF714FE207818B1B54204D3012514E0FE
:10556000B542F3D3FAE74FF4FA752089401C208145
:105570000120FBF703FE2089A842F6D30225394615
:105580000748FAF7A5FE00B10025E08801F082FE89
:105590002846BDE8F0810000B0020020680000202D
:1055A000F00200202DE9F04338484FF00009CBB05D
:1055B0004C460068FBF74BF80746354888460068BC
:1055C000FBF745F8054633480E460068FBF73FF801
:1055D00041EC100B304853EC102B304990ED041B7C
:1055E0008DED081B90ED021B8DED061B90ED001B51
:1055F0000AA88DED041B8DE8E001FDF70DFF0AA858
:10560000FAF778FE82B24FF47A752B460AA924483D
:10561000FCF775FF0AA8FAF76DFE82B22B460AA9BD
:105620002048FCF76CFF6E101F4D04E0641CA4B210
:105630000120FBF7A3FD287828B1B44206D300BFB0
:105640004FF001091AE0B442F0D3F9E73220FBF73A
:1056500095FD16A11648FAF73BFE002110B18946C8
:1056600069700BE06878401CC0B26870052805D1ED
:10567000697010A0FDF7C0FEFFF7B0FDE88801F0EB
:1056800009FE4BB04846BDE8F08300005000002002
:105690004C00002048000020D00000205884000862
:1056A000B002002070020020680000204F4B000074
:1056B000F00200205245434F4E4E454354204D5179
:1056C00054542042524F4B45522121210D0A0000D3
:1056D000F0B53049C9B0002691ED0E0B35468DED81
:1056E000060B91ED0C0B08A88DED040B91ED0A0B48
:1056F0008DED020B91ED080B8DED000B91ED060B7E
:10570000254953EC102BFDF787FE08A8FAF7F2FDA8
:1057100082B24FF47A74234608A92048FCF7EFFEC2
:1057200008A8FAF7E7FD82B2234608A91C48FCF74F
:10573000E6FE67101B4C04E06D1CADB20120FBF7C8
:105740001DFD207818B1BD4204D301261CE0BD42E6
:10575000F2D3FAE73220FBF711FD13A11348FAF751
:10576000B7FD01004FF0000002D00026A0700BE052
:10577000A178491CC9B2A170052905D1A0700CA05F
:10578000FDF73AFEFFF72AFDE08801F083FD49B0FE
:105790003046F0BDD000002028860008B00200206E
:1057A00070020020680000204F4B0000F002002033
:1057B0005245434F4E4E454354204D515454204280
:1057C000524F4B45522121210D0A0000F0B52E48C1
:1057D000C7B0002690ED160B35468DED040B90ED0D
:1057E000140B2A498DED020B90ED120B8DED000B81
:1057F00090ED100B06A853EC102BFDF70DFE06A83C
:10580000FAF778FD82B24FF47A74234606A920484D
:10581000FCF775FE06A8FAF76DFD82B2234606A9CD
:105820001C48FCF76CFE67101B4C04E06D1CADB20D
:105830000120FBF7A3FC207818B1BD4204D3012658
:105840001CE0BD42F2D3FAE73220FBF797FC13A12C
:105850001348FAF73DFD01004FF0000002D000268A
:10586000E0700BE0E178491CC9B2E170052905D16F
:10587000E0700CA0FDF7C0FDFFF7B0FCE08801F080
:1058800009FD47B03046F0BDD000002088830008F5
:10589000B002002070020020680000204F4B000082
:1058A000F00200205245434F4E4E454354204D5187
:1058B00054542042524F4B45522121210D0A0000E1
:1058C000F0B52E48C7B0002690ED1E0B35468DED85
:1058D000040B90ED1C0B2A498DED020B90ED1A0B79
:1058E0008DED000B90ED180B06A853EC102BFDF777
:1058F00093FD06A8FAF7FEFC82B24FF47A742346B1
:1059000006A92048FCF7FBFD06A8FAF7F3FC82B2D3
:10591000234606A91C48FCF7F2FD67101B4C04E067
:105920006D1CADB20120FBF729FC207818B1BD42F7
:1059300004D301261CE0BD42F2D3FAE73220FBF784
:105940001DFC13A11348FAF7C3FC01004FF000003F
:1059500002D0002620710BE02179491CC9B22171C7
:10596000052905D120710CA0FDF746FDFFF736FC97
:10597000E08801F08FFC47B03046F0BDD000002039
:1059800054850008B002002070020020680000204A
:105990004F4B0000F00200205245434F4E4E45430E
:1059A00054204D5154542042524F4B4552212121F5
:1059B0000D0A000082B0CDE9000121F00040019005
:1059C0009DED000B02B051EC100B704713B54FF674
:1059D000FF73012269460248FCF791FD00981CBD47
:1059E000700200201FB50446274802AB042240681D
:1059F0000D210078FDF730F910B1072004B010BD7B
:105A00009DF808101C2000EAD1029DF80B10DFED74
:105A10001F0AC1F301131A438DF800209DF80920D5
:105A2000C1F3810300EAD2021A438DF801209DF8E8
:105A30000A2001F0030100EAD20008439FED141A86
:105A40009FED140A8DF8020000216A46505C002880
:105A500004EB810002D080ED001A09E0C0ED000ADD
:105A60000CE000BFD0ED001A61EE801AC0ED001A04
:105A7000535C5B1E13F0FF035354F3D1491CC9B2AE
:105A80000329E3D30020B9E7000000200000000054
:105A90007B14AE3E1D5A843F2DE9FE4F0546012082
:105AA000C14E8DF800004FF000088DF8018030687D
:105AB0000C461746817C70686B4602220078FDF721
:105AC00027F94FF0FF3A00287AD1C820FBF756FBA0
:105AD0008DF8008030686B460122C17B70680078C9
